:100000000C9473010C94700D0C94450D0C941A0D06
:100010000C94EF0C0C94C40C0C94990C0C946E0C76
:100020000C94430C0C94A4010C94A4010C94A40112
:100030000C94A4010C94A4010C941F0F0C94A40123
:100040000C94A4010C94A4010C94A4010C94A4019C
:100050000C94A4010C94A4010C94A4010C94F90B2D
:100060000C94A4010C94C50D0C949B0D0C94A4014C
:100070000C94A4010C94A4010C94A4010C94A4016C
:100080000C94A4010C94A4010C94A4010C94A4015C
:100090000C94A4010C94A4010C94A4010C94FB0DE9
:1000A0000C94A4010C94A4010C94A4010C94A4013C
:1000B0000C94A4010C94A4010C94A4010C94A4012C
:1000C0000C94A4010C94A4010C94A4010C94A4011C
:1000D0000C94A4010C94A4010C94A4010C94A4010C
:1000E0000C94A4010C9422060C946F020C947702D9
:1000F0000C9479030C9480030C9413060C94AE02B8
:100100000C94A9020C94D5040C9412060C948E0243
:100110000C94FE030C945A050C9408040C947F076D
:100120000C94AB050C94EA030C947E020C948F03A0
:100130000C94A4020C94A7070C94B3030C94C7036B
:100140000C943C060C9477040C949C020C946F0461
:100150000C940D050C9412040C94E0030C944A02C8
:100160000C94F4030C94460A0C947B020C94AB039D
:100170000C94A0020C9469020C9482070C94D10395
:100180000C94A3030C9449020C9484020C9435063D
:100190000C9485030C9492020C94B3040C94BD034C
:1001A0000C9418100C9488020C9469060C94960216
:1001B0000C94A4040C9499030C94C7040C9473023B
:1001C0000C94AA0200002100240027002A002D0020
:1001D0003000330001010000040107010A010000A2
:1001E0002200250028002B002E00310034000201DF
:1001F0000000050108010B0100002000230026007B
:1002000029002C002F00320000010000030106012C
:10021000090105050505070508080808020202028C
:100220000A0A080804040404010101010101010192
:100230000303030303030303040707070C0C0C0C5D
:100240000C0C0C0C02020202060606060606060646
:100250000B0B0B0B0B0B0B0B0102102020080810D3
:100260002040102040800201020108040201010226
:1002700004081020408080402010080402018004FF
:10028000020180402010080402010804020101025A
:100290000408102040800102040810204080000063
:1002A0000A0B02090C0D0E080703040100000000F0
:1002B000000000000000000000000000000000003E
:1002C00000000000000000000000121110000000FB
:1002D000000000000000000000000000000000001E
:1002E00000000000181011241FBECFEFD1E2DEBFC6
:1002F000CDBF00E00CBF25E0AEE0B3E001C01D9231
:10030000A23CB207E1F713E0A0E0B2E0E0EEF3E4D4
:1003100000E00BBF02C007900D92AE30B107D9F7D5
:1003200011E0C3E7D1E000E006C021970109802F6A
:10033000FE010E94AE20C237D10780E00807A9F76E
:100340000E946F100C94EE210C940000ACEAB4E013
:1003500011968C93119790E0FC01E85AFD4FE491BF
:100360001496EC931497FC01EE5EFD4FE491F0E0DF
:10037000EE0FFF1FE850FE4F8591949113969C93CA
:100380008E93129708950F931F93CF93DF93E0916D
:10039000B505F091B60540910004808510E048173E
:1003A00008F064C0142F11700091FF0301114FC0B9
:1003B000842F90E0880F991FE80FF91F0184F285C0
:1003C000E02D2CEE3FEF112311F024E130E0C0913D
:1003D000FD03D091FE032C0F3D1FC90163E470E0C3
:1003E0000E949A20E617F70760F0C90168E270E002
:1003F0000E949A206F5F7F4F81E090E06E177F0729
:1004000010F52C0F3D1FC90163E470E00E949A2093
:10041000E617F70750F0C90168E270E00E949A20E1
:100420006F5F7F4F6E177F0760F42C0F3D1FC90170
:1004300063E470E00E949A20E617F707E8F41FEFE4
:1004400015C082E090E09093FC038093FB030F5F64
:100450000093FF038091FB039091FC03081719069A
:1004600028F01092FF034F5F40930004812FDF912B
:10047000CF911F910F910895C90168E270E00E9429
:100480009A206F5F7F4F6E177F07C8F283E090E07E
:10049000DACF089508958150823108F05AC0E82FCC
:1004A000F0E08827E95AFD4F8F4F0C94AE20770279
:1004B0007B0269026F027302A9027E028402880233
:1004C0008E02920296029C02A002A902A402AA0233
:1004D000AE02809180008F77809380000895809194
:1004E00080008F7DF9CF80918000877FF5CF84B524
:1004F0008F7784BD089584B58F7DFBCF8091B00048
:100500008F778093B00008958091B0008F7DF9CFF0
:10051000809190008F778093900008958091900053
:100520008F7DF9CF80919000877FF5CF8091A000DB
:100530008F778093A00008958091A0008F7DF9CFE0
:100540008091A000877FF5CF809120018F778093E5
:1005500020010895809120018F7DF9CF80912001A5
:10056000877FF5CFCF93DF93282F30E0F901E25654
:10057000FD4F8491F901E85AFD4FD491F901EE5EE7
:10058000FD4FC491CC23A1F081110E944B02EC2FAE
:10059000F0E0EE0FFF1FE850FE4FA591B491EC91F3
:1005A000ED2381E090E009F480E0DF91CF910895A0
:1005B00080E090E0FACF1F93CF93DF93282F30E0B5
:1005C000F901E256FD4F8491F901E85AFD4FD491AB
:1005D000F901EE5EFD4FC491CC23A9F0162F8111D5
:1005E0000E944B02EC2FF0E0EE0FFF1FE252FE4F95
:1005F000A591B4918FB7F894EC91111108C0D095E2
:10060000DE23DC938FBFDF91CF911F910895DE2B06
:10061000F8CFCF93DF9390E0FC01E85AFD4F24918F
:100620008E5E9D4FFC0184918823C9F090E0880F75
:10063000991FFC01EC53FE4FA591B491FC01E252CD
:10064000FE4FC591D49161110DC09FB7F8948C9164
:10065000209582238C938881282328839FBFDF9154
:10066000CF910895623051F49FB7F8943C91822F56
:10067000809583238C93E8812E2BEFCF8FB7F8944E
:10068000EC912E2B2C938FBFEACFCF93DF93EC010D
:1006900061E087E00E940903209731F460E087E081
:1006A000DF91CF910C94DB02CF3FD10511F461E0D3
:1006B000F6CFE5EAF2E0E491E150E23108F0B2C0B1
:1006C000F0E08827E959FC4F8F4F0C94AE20790356
:1006D000800385038F0399031204A303AB03B303C1
:1006E000BD03C703D103E003EA031204F403FE03CE
:1006F000080484B5806884BDC7BDDF91CF9108959B
:1007000084B5806284BDC8BDF8CF809180008068C8
:1007100080938000D0938900C0938800EECF8091B1
:100720008000806280938000D0938B00C0938A0009
:10073000E4CF80918000886080938000D0938D000A
:10074000C0938C00DACF8091B00080688093B000B5
:10075000C093B300D2CF8091B00080628093B0008C
:10076000C093B400CACF80919000806880939000BD
:10077000D0939900C0939800C0CF80919000806280
:1007800080939000D0939B00C0939A00B6CF809145
:100790009000886080939000D0939D00C0939C004F
:1007A000ACCF8091A00080688093A0008091A000D1
:1007B0008F7B8093A000D093A900C093A8009DCF09
:1007C0008091A00080628093A000D093AB00C09382
:1007D000AA0093CF8091A00088608093A000D0935E
:1007E000AD00C093AC0089CF8091200180688093D8
:1007F0002001D0932901C09328017FCF809120014F
:10080000806280932001D0932B01C0932A0175CF81
:1008100080912001886080932001D0932D01C093A6
:100820002C016BCFC038D1050CF041CF37CF3FB78B
:10083000F8948091EF039091F003A091F103B091AF
:10084000F20326B5A89B05C02F3F19F00196A11D04
:10085000B11D3FBFBA2FA92F982F8827BC01CD010A
:10086000620F711D811D911D42E0660F771F881F69
:10087000991F4A95D1F708958F929F92AF92BF9298
:10088000CF92DF92EF92FF926B017C010E941704DE
:100890004B015C01C114D104E104F104B9F00E94E0
:1008A0001704681979098A099B09683E7340810514
:1008B000910580F321E0C21AD108E108F10888EE21
:1008C000880E83E0981EA11CB11CE4CFFF90EF902E
:1008D000DF90CF90BF90AF909F908F900895089534
:1008E000DC01ED91FC910190F081E02D1994AF9223
:1008F000BF92CF92DF92EF92FF920F931F93CF930D
:10090000DF936C017B018B01040F151FEB015E016E
:10091000AE18BF08C017D10759F06991D601ED9103
:10092000FC910190F081E02DC6011995892B79F792
:10093000C501DF91CF911F910F91FF90EF90DF9054
:10094000CF90BF90AF900895FC01538D448D252F1B
:1009500030E0842F90E0821B930B541710F0CF9659
:10096000089501970895FC01918D828D981761F08B
:10097000A28DAE0FBF2FB11D5D968C91928D9F5FA2
:100980009F73928F90E008958FEF9FEF0895FC0181
:10099000918D828D981731F0828DE80FF11D858D34
:1009A00090E008958FEF9FEF0895FC01918D228DC7
:1009B000892F90E0805C9F4F821B91098F7399274C
:1009C000089581E094E00E94D50421E0892B09F488
:1009D00020E0822F0895FC01A48DA80FB92FB11D2E
:1009E000A35ABF4F2C91848D90E001968F73992765
:1009F000848FA689B7892C93A089B1898C91837043
:100A000080648C93938D848D981306C00288F3893B
:100A1000E02D80818F7D80830895EF92FF920F9368
:100A20001F93CF93DF93EC0181E0888F9B8D8C8D9A
:100A300098131AC0E889F989808185FF15C09FB78E
:100A4000F894EE89FF896083E889F9898081837051
:100A5000806480839FBF81E090E0DF91CF911F9100
:100A60000F91FF90EF900895F62E0B8D10E00F5F21
:100A70001F4F0F731127E02E8C8D8E110CC00FB6F7
:100A800007FCFACFE889F989808185FFF5CFCE018F
:100A90000E94EB04F1CFEB8DEC0FFD2FF11DE35A1B
:100AA000FF4FF0829FB7F8940B8FEA89FB89808112
:100AB0008062CFCFCF93DF93EC01888D8823B9F08C
:100AC000AA89BB89E889F9898C9185FD03C0808159
:100AD00086FD0DC00FB607FCF7CF8C9185FFF2CFD6
:100AE000808185FFEDCFCE010E94EB04E9CFDF913D
:100AF000CF91089580E090E0892B29F00E94E104D5
:100B000081110E94000080E090E0892B49F080E094
:100B100090E0892B29F00E94000081110E940000C2
:100B200080E090E0892B49F080E090E0892B29F06B
:100B30000E94000081110E94000080E090E0892B5B
:100B400049F080E090E0892B29F00E94000081119B
:100B50000C9400000895089520915303260F332725
:100B6000331F21323105ECF420919C03FC0190E00D
:100B700080E0243069F082E00895A0915303219130
:100B8000AC014D5C5C4FA40FB52FB11D2C930196A9
:100B9000861798F380915303680F6093530380E0A6
:100BA000089581E0089510929C0381E080939B0357
:100BB0001092760361E084E10E94DB0261E085E14E
:100BC0000E94DB02E9EBF0E080818E7F80838081F0
:100BD0008D7F808388E48093B80085E48093BC0097
:100BE0000895CF93DF9391E0909332038823B9F077
:100BF000C091B800D091BA008091BC008A7B8093EC
:100C0000BC0060E084E10E94DB0260E085E10E94BC
:100C1000DB020E94D305D093BA00C093B800DF91E5
:100C2000CF9108950895E091FA038091F903E817B0
:100C300030F4F0E0EE5EFC4F808190E008958FEF9D
:100C40009FEF08959091FA038091F9032FEF3FEF02
:100C5000981748F4E92FF0E0EE5EFC4F208130E079
:100C60009F5F9093FA03C90108958091F9039091D1
:100C7000FA03891B990B0895CF92DF92EF92FF92AE
:100C80000F931F93CF93DF937C01CB018A012091B7
:100C9000A203222389F0EB016B01C40ED51ECC15F3
:100CA000DD0569F06991D701ED91FC910190F0812A
:100CB000E02DC7011995F3CF642F0E94AC05C80140
:100CC000DF91CF911F910F91FF90EF90DF90CF9028
:100CD0000895CF93DF931F92CDB7DEB7698320913C
:100CE000A2032223F9F02091F703203258F021E0EB
:100CF00030E0FC013383228390E080E00F90DF91AD
:100D0000CF9108958091F803E82FF0E0ED55FC4F66
:100D1000998190838F5F8093F8038093F70381E03C
:100D200090E0ECCF61E0CE0101960E94AC05F7CFD8
:100D3000CF92DF92EF92FF920F931F93CF93DF93A7
:100D4000FC01C48121E02093A203C093C30310924D
:100D5000F8031092F7038385682B8EE994E00E94D4
:100D60006906D091F703D13208F092C00E941704AF
:100D70006B017C0180919C03811165C082E08093AE
:100D80009C0381E080939B038FEF80939A031092E2
:100D90009903D0939803A3EAB3E0E8E7F3E080E097
:100DA000D81385C01092770380917703CC0FC82B9E
:100DB000C093770380917603813009F07CC0109254
:100DC00076030E9417046B017C0180917703809366
:100DD000BB0080919E0390919F03A091A003B091CE
:100DE000A103892B8A2B8B2B99F00E941704009169
:100DF0009E0310919F032091A0033091A1036C19D1
:100E00007D098E099F090617170728073907E0F1A2
:100E10008091BC0083FDD9CF85EC8093BC000E94FB
:100E200017046B017C0180919C03823009F445C05A
:100E300080919A038F3F61F180919A03803241F152
:100E400080919A0325C080919E0390919F03A09169
:100E5000A003B091A103892B8A2B8B2B09F48ACF95
:100E60000E94170400919E0310919F032091A003FC
:100E70003091A1036C197D098E099F090617170788
:100E80002807390708F076CF80919D030E94F1056D
:100E90001092F8031092F7031092A203DF91CF9102
:100EA0001F910F91FF90EF90DF90CF9008959D914B
:100EB00091938F5F75CF85EEB0CF80919E03909117
:100EC0009F03A091A003B091A103892B8A2B8B2BA8
:100ED00009F4A9CF0E94170400919E0310919F036B
:100EE0002091A0033091A1036C197D098E099F09FF
:100EF000061717072807390708F095CFC5CF90E0E8
:100F000080E0089582E00E94B202892BA1F48091D2
:100F1000E6039091E703A091E803B091E9030196FD
:100F2000A11DB11D8093E6039093E703A093E8030E
:100F3000B093E90308958091E6039091E703A091AF
:100F4000E803B091E9030197A109B109EBCF83E070
:100F50000E94B202892BA1F48091E6039091E703ED
:100F6000A091E803B091E9030197A109B109809329
:100F7000E6039093E703A093E803B093E903089591
:100F80008091E6039091E703A091E803B091E90313
:100F90000196A11DB11DEBCFFC019B01245131092C
:100FA000C90163E470E00E949A20E617F70758F041
:100FB000C90168E270E00E949A206F5F7F4F81E074
:100FC0006E177F0708F480E00895FC019B012C5EFA
:100FD0003F4FC90163E470E00E949A20E617F707CB
:100FE00058F0C90168E270E00E949A206F5F7F4F5D
:100FF00081E06E177F0708F480E008952F923F92FA
:101000004F925F926F927F928F929F92AF92BF9218
:10101000CF92DF92EF92FF920F931F93CF93DF93C4
:1010200000D0CDB7DEB789832A011901862F90E061
:10103000880F991F09966091B5057091B605860FC6
:10104000971F9B838A83EE20A1F1912CC12CD12C78
:1010500076019981991609F477C0B201EA81FB8182
:10106000808191810E94E507882309F457C0EA81B5
:10107000FB81A280B380B101C5010E94CC07882307
:1010800069F0CC0CDD1CEE1CFF1C6894C0F88A8152
:101090009B8104969B838A839394DBCFB801C5011F
:1010A0000E94CC078823D1F1CC0CDD1CEE1CFF1C68
:1010B000EECF812C912C54018394C12CD12C76013C
:1010C0009981992309F440C0B201EA81FB818081B2
:1010D00091810E94E507882309F1EA81FB81628002
:1010E0007380B101C3010E94CC07882389F0C8280E
:1010F000D928EA28FB288A819B8104969B838A83CE
:10110000880C991CAA1CBB1C998191509983D8CF3B
:10111000B801C3010E94CC078111EDCF0F900F9051
:101120000F90DF91CF911F910F91FF90EF90DF9083
:10113000CF90BF90AF909F908F907F906F905F9077
:101140004F903F902F900895C092B105D092B20574
:10115000E092B305F092B40581E0E0CF3F924F9268
:101160005F926F927F928F929F92AF92BF92CF9237
:10117000DF92EF92FF920F931F93CF93DF9300D0F4
:1011800000D0CDB7DEB7382E5A8349833C832B83FA
:1011900038010091B5051091B605862F90E0880FB3
:1011A000991F0996800F911F9E838D83812C912C0E
:1011B00054018394C12CD12C7601332009F452C000
:1011C000ED81FE814080518069817A81C2010E9457
:1011D000E507882341F1C828D928EA28FB282D8172
:1011E0003E812E5F3F4FF801808590E0880F991F68
:1011F0000996800F911F2817390768F4B301ED8114
:10120000FE81828193810E94CC07882399F02D81F1
:101210003E812C5F3F4F880C991CAA1CBB1C3A9442
:101220003E832D83CACF6B817C81C2010E94E5077A
:101230008111D5CF26960FB6F894DEBF0FBECDBF75
:10124000DF91CF911F910F91FF90EF90DF90CF90A2
:10125000BF90AF909F908F907F906F905F904F90D6
:101260003F900895C092B105D092B205E092B305C7
:10127000F092B40581E0DECF0F931F93CF938C01E2
:10128000C62F0E9498066C2F6460C8010E949806C1
:101290006C2F6B7FC8010E94980683EC90E0019749
:1012A000F1F7CF911F910F9108950F931F93CF9353
:1012B000DF938C01D62FC42F607F642B0E943C09E2
:1012C00080E1D89FB00111246C2BC801DF91CF9130
:1012D0001F910F910C943C09CF93DF9300D000D065
:1012E0001F921F92CDB7DEB798E0E2E1F2E0DE0197
:1012F000119601900D929A95E1F790919D059617A0
:1013000008F46FEF262F30E0220F331F41E050E04A
:101310004C0F5D1F240F351FF9016081680F606855
:1013200040E085E995E028960FB6F894DEBF0FBE41
:10133000CDBFDF91CF910C94550940E061E085E984
:1013400095E00E9455098BE39FE10197F1F708951D
:10135000CF93DF931092FA031092F9031092F803DF
:101360001092F7030E94D30589E492E09093F4036E
:101370008093F3038AE492E09093F6038093F5035D
:1013800010929A0580919F05823018F098E0909312
:101390009A0580939D0562E370E080E090E00E94F2
:1013A0003C046091A00585E995E00E94980668EEEE
:1013B00073E080E090E00E943C0460E385E995E002
:1013C0000E943C09CBE4D6E4CE010197F1F760E33B
:1013D00085E995E00E943C092197F1F760E385E9F2
:1013E00095E00E943C0983E592E00197F1F760E205
:1013F00085E995E00E943C0960919A05606240E0B1
:1014000085E995E00E94550984E080939B0540E0C2
:101410006CE085E995E00E9455090E949D0982E0F3
:1014200080939C0540E066E085E995E00E945509BF
:1014300040E062E085E995E00E9455098BE39FE179
:101440000197F1F7DF91CF910895CF93DF93EC01EE
:1014500060E086E00E94DB02BE010D2E000C880BCE
:10146000990B0E943C0461E086E00E94DB02BE0111
:1014700075956795072E000C880B990B0E943C040C
:101480000E94A809DF91CF910C949D0941E00E9430
:10149000550981E090E00895FB0101900020E9F7F3
:1014A0003197AF01461B570BDC01ED91FC91028097
:1014B000F381E02D19948F929F92AF92BF92EF9299
:1014C000FF920F931F93CF93DF93CDB7DEB7A19712
:1014D0000FB6F894DEBF0FBECDBF7C01FA01CB0181
:1014E00019A2223008F42AE08E010F5D1F4F822ED0
:1014F000912CB12CA12CBF01A50194010E945E206A
:10150000F901CA016A300CF5605DD8016E938D0156
:10151000232B242B252B79F790E080E0109721F0E6
:10152000BD01C7010E944C0AA1960FB6F894DEBF18
:101530000FBECDBFDF91CF911F910F91FF90EF9024
:10154000BF90AF909F908F900895695CDECFCF924F
:10155000DF92EF92FF920F931F93CF93DF9377FF6A
:101560001DC06A017B01EC016DE20E9470048C01D8
:1015700044275527BA014C195D096E097F092AE0F5
:10158000CE010E945B0A800F911FDF91CF911F91C6
:101590000F91FF90EF90DF90CF9008952AE0DF91B8
:1015A000CF911F910F91FF90EF90DF90CF900C940F
:1015B0005B0A2F923F924F925F926F927F928F922F
:1015C0009F92AF92BF92CF92DF92EF92FF921F93C2
:1015D000CF93DF93EC016A017B01722EAB01960180
:1015E000CB01B6010E94E9216AE472E0811126C0B4
:1015F00046015701E894B7F82FEF3FEF4FE75FE759
:10160000C501B4010E94E92181110CC02FEF3FEF09
:101610004FE75FE7C501B4010E942A1F6EE472E044
:10162000181664F02FEF3FEF4FE75FE4C701B601F4
:101630000E94E4211816B4F462E572E0CE01DF9155
:10164000CF911F91FF90EF90DF90CF90BF90AF9020
:101650009F908F907F906F905F904F903F902F90D2
:101660000C944C0A2FEF3FEF4FE75FECC701B60138
:101670000E942A1F87FDE0CF20E030E0A901C701CA
:10168000B6010E942A1F312C212C87FF09C06DE270
:10169000CE010E9470041C01F7FAF094F7F8F09460
:1016A00010E060E070E080E09FE3711641F020E020
:1016B00030E040E251E40E943C211F5FF6CFA701D9
:1016C00096010E94D0202B013C010E94B5214B01C4
:1016D0005C012AE0BC01A401CE010E945B0A7C01EE
:1016E000E20CF31C1123C1F1C501B4010E942F1FAC
:1016F0009B01AC01C301B2010E94CF204B015C01F0
:101700006EE2CE010E947004E80EF91E115020F125
:1017100020E030E040E251E4C501B4010E94901F96
:101720002B013C010E94B5214B01B12CA12C2AE0D8
:10173000B501A401CE010E945B0AE80EF91EC501A5
:10174000B4010E942F1F9B01AC01C301B2010E9492
:10175000CF204B015C01DACFC701DF91CF911F9100
:10176000FF90EF90DF90CF90BF90AF909F908F90C1
:101770007F906F905F904F903F902F9008950C94C2
:101780004C0A85ED8093BC0080919E0390919F034D
:10179000A091A003B091A1030796A11DB11D23E064
:1017A000B695A795979587952A95D1F72091BC0076
:1017B00024FD03C010929C03089540919E03509114
:1017C0009F036091A0037091A103452B462B472BEB
:1017D00069F30097A105B10541F025E32A95F1F7DA
:1017E00000000197A109B109E1CF80919D030C94FC
:1017F000F1051F920F920FB60F9211242F933F9372
:101800008F939F93AF93BF938091EB039091EC03E1
:10181000A091ED03B091EE033091EA0323E0230F92
:101820002D3758F50196A11DB11D2093EA03809331
:10183000EB039093EC03A093ED03B093EE03809140
:10184000EF039091F003A091F103B091F2030196A0
:10185000A11DB11D8093EF039093F003A093F103BA
:10186000B093F203BF91AF919F918F913F912F91D0
:101870000F900FBE0F901F90189526E8230F029629
:10188000A11DB11DD2CF1F920F920FB60F9211243E
:101890000BB60F922F933F934F935F936F937F936A
:1018A0008F939F93AF93BF93EF93FF93E0910E02BB
:1018B000F0910F021995FF91EF91BF91AF919F9118
:1018C0008F917F916F915F914F913F912F910F90E9
:1018D0000BBE0F900FBE0F901F9018951F920F9286
:1018E0000FB60F9211240BB60F922F933F934F9385
:1018F0005F936F937F938F939F93AF93BF93EF9378
:10190000FF93E0910C02F0910D021995FF91EF9178
:10191000BF91AF919F918F917F916F915F914F9107
:101920003F912F910F900BBE0F900FBE0F901F9005
:1019300018951F920F920FB60F9211240BB60F92AB
:101940002F933F934F935F936F937F938F939F93C7
:10195000AF93BF93EF93FF93E0910202F0910302E4
:101960001995FF91EF91BF91AF919F918F917F91C9
:101970006F915F914F913F912F910F900BBE0F9000
:101980000FBE0F901F9018951F920F920FB60F92D7
:1019900011240BB60F922F933F934F935F936F9346
:1019A0007F938F939F93AF93BF93EF93FF93E091B8
:1019B0000002F09101021995FF91EF91BF91AF9153
:1019C0009F918F917F916F915F914F913F912F9157
:1019D0000F900BBE0F900FBE0F901F9018951F9287
:1019E0000F920FB60F9211240BB60F922F933F93C5
:1019F0004F935F936F937F938F939F93AF93BF9317
:101A0000EF93FF93E0910A02F0910B021995FF9179
:101A1000EF91BF91AF919F918F917F916F915F9166
:101A20004F913F912F910F900BBE0F900FBE0F90D3
:101A30001F9018951F920F920FB60F9211240BB69C
:101A40000F922F933F934F935F936F937F938F9357
:101A50009F93AF93BF93EF93FF93E0910802F091B0
:101A600009021995FF91EF91BF91AF919F918F91CD
:101A70007F916F915F914F913F912F910F900BBE8E
:101A80000F900FBE0F901F9018951F920F920FB6D8
:101A90000F9211240BB60F922F933F934F935F93A6
:101AA0006F937F938F939F93AF93BF93EF93FF9326
:101AB000E0910602F09107021995FF91EF91BF9115
:101AC000AF919F918F917F916F915F914F913F91D6
:101AD0002F910F900BBE0F900FBE0F901F90189577
:101AE0001F920F920FB60F9211240BB60F922F93E5
:101AF0003F934F935F936F937F938F939F93AF9396
:101B0000BF93EF93FF93E0910402F09105021995C2
:101B1000FF91EF91BF91AF919F918F917F916F91C5
:101B20005F914F913F912F910F900BBE0F900FBE81
:101B30000F901F9018951F920F920FB60F921124BD
:101B40000BB60F922F933F934F935F936F937F93B7
:101B50008F939F93AF93BF93EF93FF9381E094E0B4
:101B60000E94EB04FF91EF91BF91AF919F918F91F4
:101B70007F916F915F914F913F912F910F900BBE8D
:101B80000F900FBE0F901F9018951F920F920FB6D7
:101B90000F9211240BB60F922F938F939F93EF9375
:101BA000FF93E0911104F09112048081E0911704F9
:101BB000F091180482FD1DC0908180911A048F5FFE
:101BC0008F7320911B04821741F0E0911A04F0E01A
:101BD000EF5FFB4F958F80931A04FF91EF919F91D8
:101BE0008F912F910F900BBE0F900FBE0F901F90F3
:101BF00018958081F2CF1F920F920FB60F92112489
:101C00000BB60F922F933F934F935F936F937F93F6
:101C10008F939F93AF93BF93EF93FF938091B900FE
:101C2000887F803609F44DC008F040C0883209F43E
:101C3000A9C028F5803109F49DC0C8F4882309F4AF
:101C4000FBC0883009F496C0FF91EF91BF91AF912E
:101C50009F918F917F916F915F914F913F912F91C4
:101C60000F900BBE0F900FBE0F901F9018958831EC
:101C700009F488C0803241F780939A0314C08034FD
:101C800009F49DC040F48033B9F38833E9F68093BA
:101C90009A0385ECB0C0803509F485C0883509F415
:101CA00096C0883489F60E94C10BCECF883909F4DA
:101CB0008CC038F5883729F050F4883611F0803719
:101CC00019F683E080939C031092750357C08838FF
:101CD00009F47BC0803919F0803809F0B5CF8091C4
:101CE0007503803208F071C0E091750381E08E0FBA
:101CF000809375038091BB00F0E0EB5AFC4F80832A
:101D00003DC0803B39F0E0F4803A09F479C0883A6C
:101D100009F09ACF84E080939C03109254031092B0
:101D20005303E091F303F091F40319958091530369
:101D300081110FC081E0809353031092330309C0D7
:101D4000803C09F4A6CF883C09F4A3CF883B09F076
:101D50007BCFE091540381E08E0F80935403F0E039
:101D6000ED5CFC4F80818093BB0090915403809187
:101D7000530329C0809177038093BB0085EC809347
:101D8000BC0062CF9091990380919803981758F501
:101D9000E091990381E08E0F80939903F0E0E85879
:101DA000FC4F8081E9CFE091990381E08E0F809311
:101DB00099038091BB00F0E0E858FC4F808390913C
:101DC0009903809198039817C8F285E8D8CFE091DD
:101DD000990381E08E0F809399038091BB00F0E01E
:101DE000E858FC4F808380919B0381115CCF81E098
:101DF0008093760384EA8093BC0010929C0324CFE6
:101E000085EC8093BC0010929C0380917503803216
:101E100030F4E0917503F0E0EB5AFC4F10826091D2
:101E2000750370E0E091F503F091F60385E593E02A
:101E300019951092750308CF10929A0334CF1F9210
:101E40000F920FB60F9211240BB60F922F933F9360
:101E50004F935F936F937F938F939F93AF93BF93B2
:101E6000EF93FF93E091AE04F091AF0490818091E5
:101E7000B00498232091B1043091B2042F3F32076F
:101E800031F02F5F3F4F3093B2042093B104809123
:101E9000AC04811137C0911116C02091B10430916A
:101EA000B2042536310558F01092B3043093B604CD
:101EB0002093B50481E08093B4048093AC04109225
:101EC000B2041092B1048091AB04882341F0809158
:101ED000AA04911163C061E0811163C02F9AFF9140
:101EE000EF91BF91AF919F918F917F916F915F9192
:101EF0004F913F912F910F900BBE0F900FBE0F90FF
:101F00001F9018958091AC048130A1F49923D9F2E7
:101F1000E091B4048E0F8093B404F0E0EE0FFF1F45
:101F2000E455FB4F2091B1043091B20432872187F0
:101F300082E0C3CF8091AC04823039F5911119C091
:101F4000E091B40481E0E03720F08093B30483E0B3
:101F5000B4CF8E0F8093B404F0E0EE0FFF1FE45572
:101F6000FB4F2091B1043091B2043287218781E088
:101F7000A4CF2091B1043091B2042536310508F484
:101F8000A2CF83E08093AC049ECF8091AC048330D9
:101F900009F099CF992309F492CF95CF882321F0A6
:101FA00060E00E94DB029BCF2F9899CFEF92FF92C7
:101FB0000F931F93CF93DF93EC01F62F8A017901E2
:101FC00090E080E030E0E0E0DE01AE0FB11D2C914A
:101FD000222341F0320F2E9F800D911D11241C925F
:101FE000FE1315C0332399F0532F5695850F911D7D
:101FF000632F70E00E949A20DE01A60FB11D3C9372
:10200000D8013C9131110EC06C9390E080E0EF5FFD
:10201000FE17D0F681E0DF91CF911F910F91FF90D5
:10202000EF900895D7013C91332371F380E0F3CF13
:10203000E1E0F4E01382128288EE93E0A0E0B0E0E9
:1020400084839583A683B7832EE132E03183208396
:1020500025EC30E03587248724EC30E0378726876D
:1020600020EC30E0318B208B21EC30E0338B228B65
:1020700022EC30E0358B248B26EC30E0378B268B3E
:10208000118E128E138E148EEEE9F4E013821282FA
:1020900084839583A683B78380E392E091838083D2
:1020A0008CEA94E09093B6058093B50580E00E9499
:1020B000A601EAEAF4E0108211821092A105E5E996
:1020C000F5E01382128282E492E09183808387E2BA
:1020D000848380E1818782E0828713860895CF938D
:1020E000DF93CDB7DEB7C054D1090FB6F894DEBF89
:1020F0000FBECDBF789484B5826084BD84B5816005
:1021000084BD85B5826085BD85B5816085BD8091C2
:102110006E00816080936E0010928100809181003A
:102120008260809381008091810081608093810032
:10213000809180008160809380008091B1008460F4
:102140008093B1008091B00081608093B000809155
:1021500091008260809391008091910081608093D2
:102160009100809190008160809390008091A10007
:1021700082608093A1008091A10081608093A10082
:102180008091A00081608093A000809121018260F5
:1021900080932101809121018160809321018091B0
:1021A000200181608093200180917A008460809377
:1021B0007A0080917A00826080937A0080917A0020
:1021C000816080937A0080917A00806880937A00A1
:1021D0001092C1001092FA031092F9031092F803C2
:1021E0001092F7030E94D30589E492E09093F403E0
:1021F0008093F3038AE492E09093F6038093F503CF
:102200000E94A809E0911104F091120412E01083D9
:10221000E0910D04F0910E041082E0910F04F09112
:1022200010048FEC808310921904E0911504F09152
:10223000160486E08083E0911304F09114048081F9
:1022400080618083E0911304F091140480818860A0
:102250008083E0911304F09114048081806880836E
:10226000E0911304F091140480818F7D808362E0FB
:1022700082E00E94090362E083E00E94090387EA8A
:1022800097E0909301028093000280916A0083603E
:1022900080936A00EC9A82E897E09093030280931F
:1022A000020280916A008C6080936A00ED9A88E057
:1022B0008093A00560E085E995E00E9498068AE099
:1022C0000E94A6011092AA0481E08093AB0461E011
:1022D0008DE00E94090360E08091AD040E94090333
:1022E0001093B0001093B10084E68093B300809304
:1022F000B4001092B2008091AC04833011F41092BB
:10230000AC0484E08093700060E085E00E940903E3
:1023100061E089E00E94090361E086E00E94090310
:1023200060E088E00E94DB0260E089E00E94DB025E
:1023300061E086E00E94DB029E012F5F3F4F38AFD5
:102340002FAB8091AC04833009F019C18091B304A4
:10235000882309F45CC01092B3041092B40480E4A2
:102360008093B0051092A7051092A6051092AB05B8
:102370001092AA051092A9051092A8051092B10515
:102380001092B2051092B3051092B4051092AF05E9
:102390001092AE058091B00586FDA5C0E091B5050F
:1023A000F091B6052085822F8F7B843009F047C1DC
:1023B00083859485865891098C35910508F03FC135
:1023C00085859685243009F049C08197489708F0A3
:1023D00036C1878590890897089708F030C181E059
:1023E0008093B0058091B9059091BA059093A905A5
:1023F0008093A8058091BD059091BE059093AB0593
:102400008093AA058091B7059091B80544C21092B7
:10241000B0058091A6059091A7059093B80580938B
:10242000B7058091AA059091AB05B0E0A0E080933C
:10243000BD059093BE05A093BF05B093C0058091E4
:10244000A8059091A905B0E0A0E08093B90590930C
:10245000BA05A093BB05B093BC0584CF8254910903
:102460008F9708F0ECC0E12C00E312E020E936E0A1
:1024700040E352E063E080E20E94FE07882309F413
:10248000DEC0E091B505F091B605E157FF4F8081C0
:1024900091810897089708F0D2C02091B1059091DA
:1024A000B2056091B3058091B405462F50E050937A
:1024B000AB054093AA05422F592F4E3E37E85307EC
:1024C00009F09AC025E130E03093A7052093A605D6
:1024D00090E09093A9058093A80580E290E0909306
:1024E000AF058093AE050E949D098091B105909142
:1024F000B205A091B305B091B4058115FFEF9F0718
:10250000F0E4AF07FFEBBF0711F40C94621B08F077
:10251000DEC781153FEF930737E4A30738EBB30716
:1025200011F40C94401B08F08FC782309105A1056F
:10253000B10511F40C941C1B08F063C70197A105A9
:10254000B10511F40C940C1B8091100290911102B2
:102550000197059770F00E949D0981E090E09093AB
:1025600011028093100268EC70E080E090E00E941D
:102570003C048091AC04833011F41092AC0480913F
:102580001002909111028330910511F40C94C61E33
:1025900014F00C94411E8130910511F40C945A1ED4
:1025A000029711F40C948C1E4091E6035091E703BE
:1025B0006091E8037091E9038091E2039091E30355
:1025C000A091E403B091E503481759076A077B0718
:1025D00081F08091E6039091E703A091E803B09128
:1025E000E9038093E2039093E303A093E403B093A1
:1025F000E5030E947A05A5CE9095291310C030E01E
:102600003093A9052093A805982F909569130CC0C5
:1026100088E090E09093A7058093A6055ECF509345
:10262000A9054093A805F0CF24E130E03093A70539
:102630002093A6056093AA058093AB054ECFE09149
:10264000B505F091B6058085843609F0AFC0838565
:102650009485C397859708F0A9C0858596854A9784
:10266000439708F0A3C0E12C00EB11E020E135E036
:1026700040EB51E063E080E10E94FE07882309F40B
:1026800095C0F090B105CF2CD090B20549E0A42EB2
:10269000B12C42E0C41640E2D40619F13DE0A32E6D
:1026A000B12C5AEAC5165AE5D506D9F02CE0A22E6F
:1026B000B12C84E5C81682E3D80699F09BE0A92ED8
:1026C000B12C93E0C91691E0D90659F05EE0A52E31
:1026D000B12CA3E2CA16ABECDA0619F08AE0A82EF8
:1026E000B12CE12C00EB11E020E135E040EB51E0B2
:1026F00063E280E20E94FE07882309F457C0FD24AC
:102700008091B1059091B205A091B305B091B40547
:102710009C0104E0369527950A95E1F73093A905C9
:102720002093A8052A2F30E03093AB052093AA050B
:10273000382F3A2739272F2D22952F702F252F70CC
:10274000482F4F70241719F024E02093B005EAE0D9
:10275000AE16B10479F02091B00520612093B00548
:102760004091AC055091AD05C42AD52AD092AD0553
:10277000C092AC053B1729F08091B005846080932E
:10278000B005E091B505F091B60581859285883256
:102790009A4028F48091B00581608093B005B09292
:1027A000A705A092A60580E390E099CEE091B5053B
:1027B000F091B6058085803209F075C0EE24E3946F
:1027C0000CE013E02CE137E044E051E061E08FE001
:1027D0000E94FE07882309F466C0E091B505F091D8
:1027E000B605DF01A95BBF4F8D919C9104970597BA
:1027F00008F059C080E88093B005C090B105D09032
:10280000B205E090B305F090B4054C2D4370D701AC
:10281000C60112E0B695A795979587951A95D1F7B9
:102820009093A8051092A9059C0133273093AB051E
:102830002093AA05218532852536344088F52091DC
:10284000C1052F5F2093C105C0FE11C032E830934F
:10285000B0053091BD058095381719F086E8809352
:10286000B005832F90E09093AB058093AA052230AA
:1028700028F08091B00581608093B0058FE090E0F2
:102880009093AF058093AE05415082E190E04230D5
:1028900010F083E090E09093A7058093A60523CEE7
:1028A0001092C105EBCFE091B505F091B605838597
:1028B000948584974A9708F055C020852A3129F0DD
:1028C0002A3219F0203209F04DC085859685089787
:1028D000089708F047C030E0C901019797FDC9018A
:1028E0009595879508E512E028E532E040EB54E045
:1028F00063E00E94AE088823A9F18091B105909110
:10290000B205A091B305B091B405282F2F77E7E069
:10291000B695A79597958795EA95D1F7E091B50576
:10292000F091B605418552854438534018F431E0A2
:102930003093B00530E03093AB052093AA05909317
:10294000A9058093A805208530E0C901019797FD6E
:10295000C901959587959093AF058093AE0583E166
:1029600090E099CF81E08093000489E793E0909311
:10297000FE038093FD031092FF030E94C301813088
:1029800009F067C0C12CD12C760110E0E091B505AB
:10299000F091B6059085809100048917E0F40E94BB
:1029A000C301082F0E94C30101110BC0813009F03F
:1029B00050C0CC0CDD1CEE1CFF1C6894C0F81F5FDF
:1029C000E5CF013009F045C0811143C0CC0CDD1CBE
:1029D000EE1CFF1CF4CF812F90E09093AF05809305
:1029E000AE05C092B105D092B205E092B305F09267
:1029F000B4058C2D8F7390E09093AB058093AA055E
:102A0000960146E0369527954A95E1F72F713327D1
:102A10003093A9052093A805960122273071232B16
:102A200031F4805C9F4F9093AB058093AA0580E8BA
:102A3000D3FC88E88093B00581859285833E9840D9
:102A400028F48091B00581608093B0058FE090E01C
:102A500022CFE091B505F091B605838594858897DE
:102A60004D9708F046C0858596850C970B9708F022
:102A700040C083E0809300048CEB91E09093FE03D0
:102A80008093FD031092FF030E94C301813089F5FA
:102A90000E94C301182F81112CC0C12CD12C7601AA
:102AA000E091B505F091B6059085809100048917F5
:102AB00008F071C00E94C301B82E1330B1F00E941B
:102AC000C301082F133021F40E94C301081311C061
:102AD00051E0B51256C001110CC0CC0CDD1CEE1C2F
:102AE000FF1C6894C0F81F5FDBCF0E94C301B816BB
:102AF00031F3E091B505F091B60520852C3311F046
:102B0000243051F4838594858638910508F48CC06F
:102B1000833E910508F4A5C0E091B505F091B60596
:102B20008085843209F40AC1823209F035C1818579
:102B300092858C3E9C4508F0D6CC83859485089779
:102B4000079708F0D0CCE55BFF4F80819181089713
:102B5000079708F0C8CC81E08093B0058091B90553
:102B60009091BA059093A9058093A8058091BD0521
:102B70009091BE059093AB058093AA0585E090E007
:102B80008ACEB110B6CF013009F0B3CFCC0CDD1C2A
:102B9000EE1CFF1CA8CF812F90E09093AF0580938F
:102BA000AE05C092B105D092B205E092B305F092A5
:102BB000B4052C2D30E08D2D1432F8F480E880938C
:102BC000B0053093AB052093AA058D2D90E090932E
:102BD000A9058093A805E0FE03C088E88093B005AE
:102BE0008185928583379A4028F48091B005816071
:102BF0008093B00580E190E04ECE90E99093B005CF
:102C0000D7FE03C098E99093B0053093AB052093AD
:102C1000AA058F7790E09093A9058093A805F0927C
:102C2000AD05E092AC05DCCF8D32910508F474CF90
:102C30006CE175E2B7E0CB2ED12C8D34910508F014
:102C40006BCF85859685243091F44D97469708F093
:102C500063CF878590890797089708F05DCF81E853
:102C6000BFCB68E670E1A6E0CA2ED12CEACF0E9465
:102C7000CC07882309F450CFEE24E39406E212E057
:102C80002CE236E044EF51E063E08CE10E94FE0765
:102C9000882309F441CFE091B505F091B605E158DC
:102CA000FF4F808191810797089708F035CF80E822
:102CB0008093B0058091B1059091B205A091B305C4
:102CC000B091B4058C019D0144E036952795179588
:102CD00007954A95D1F7B8011093AB050093AA0563
:102CE0008C019D0154E136952795179507955A95C6
:102CF000D1F71093A9050093A80544E050E020E027
:102D0000362F3F70230F14E0769567951A95E1F7FB
:102D100041505109A9F782278F709927AA27BB270D
:102D2000892B8A2B8B2B19F084E88093B005D092E5
:102D3000A705C092A6058CE190E0D1CB8385948550
:102D40008D5791098735910538F585859685CE97FC
:102D50008C9710F5E12C0EE012E02AE236E04EE00E
:102D600052E063E080E10E94FE078823A9F0809191
:102D7000B1052091B20530E03093AB052093AA0550
:102D800090E09093A9058093A80580E190E090934E
:102D9000AF058093AE05F2CEE091B505F091B60592
:102DA0008085982F9F7D943419F0863009F08BC070
:102DB00023853485225431092F32310508F083C030
:102DC00025853685215431092F32310508F07BC025
:102DD0008630B1F481E08093B0058091B90590917F
:102DE000BA059093A9058093A8058091BD0590919F
:102DF000BE059093AB058093AA0581E190E04BCD91
:102E0000E12C09E212E02BE736E049E252E063E010
:102E10008436B9F580E10E94FE07882309F453C087
:102E20008091B1059091B2059093A9058093A80572
:102E30002BE736E049E252E063E080E20E94FE07C1
:102E4000882309F440C09091B1053091B2052091DA
:102E5000B3058091B4052095821731F0909539170C
:102E600019F094E09093B005982F832F9093AB05C1
:102E70008093AA0580E390E09093AF058093AE0520
:102E8000BCCF80E20E94FE078823E9F08091B30561
:102E90003091B4052091B1059091B2052093A80519
:102EA0009093A905932F9095891308C090E0909373
:102EB000AB058093AA0580E290E0DECF8093AA055F
:102EC0003093AB05F8CFE091B505F091B605838559
:102ED00094852085243469F50B970A9750F58585EC
:102EE00096858A974E9728F5EE24E3940EEE12E02D
:102EF00026E638E04EEE52E063E080E20E94FE07F4
:102F00008823B9F0E091B505F091B605E157FF4F80
:102F1000808191810B970A9760F480E88093B005D7
:102F200080E290E09093AF058093AE0589E190E058
:102F3000B2CCE091B505F091B605208583859485E6
:102F40000297049708F062C0243209F05FC08585BB
:102F500096850F970C9708F059C0EE24E39407E08C
:102F600011E029E232E04EE950E063E080E10E94A6
:102F7000FE07882309F44AC0E091B505F091B60533
:102F8000DF01A15BBF4F8D919C9102970497F0F5F3
:102F900080E88093B0059091B1058091B205292F0A
:102FA000382F482F42954F708F70A4E036952795A3
:102FB000AA95E1F72F70392F3F709FE0942798274B
:102FC0009227391719F094E89093B00561857285BE
:102FD000683F714128F49091B00592609093B005DC
:102FE0004093A8051092A905F0E18F9FC00111241C
:102FF000822B9093AB058093AA0587E190E0909394
:10300000A7058093A60580E190E069CAE091B50527
:10301000F091B60520858385948540970D97B8F586
:103020002432A9F5858596854597409780F5E12C52
:1030300007EA15E024ED31E046E152E063E080E18B
:103040000E94FE07882319F1E091B505F091B605BD
:10305000DF01A15BBF4F8D919C9108970797B8F452
:103060008091B1059091B20598279F3F81F4218509
:1030700032852431354018F491E09093B00590E00A
:103080009093AB058093AA0586E190E0B8CFE090DD
:10309000B505F090B605D70118968C91803709F0E8
:1030A00053C067012701BCED4B0E511C20E030E0FE
:1030B00040E010E000E0912C812C712CD6011B9691
:1030C000ED91FC911C971D96AD90BC90C501BF0180
:1030D0000E949A20DB01EA0DFB1D71973E97B8F51F
:1030E000512F602F792D882D972D01E00E94B62059
:1030F000E32FF42F152F062F972E882E792E129757
:1031000008F4216084E0C80ED11C4C145D04B1F6B3
:1031100088E190E09093A7058093A60587E390E06F
:103120009093AF058093AE0580E18093B005209326
:10313000AC05E093AD05F093B1055093B2056093F3
:10314000B3057093B405CFC9843108F4F2C082E3AB
:10315000EFA9F8AD11928A95E9F7D70118964C912D
:103160004250550B60E024E0822F90E084179507D1
:10317000B4F4880F991FF701E80FF91F8185823396
:1031800060F4E1E0F0E0EC0FFD1FE80FF11D90812D
:103190009F5F9083681708F4682F2E5FE5CF1EAA03
:1031A0001DAA9E012B5C3F4FAE014A5C5F4FCE01D2
:1031B00001960E94D60F882309F4BBC082E3EFA9D1
:1031C000F8AD11928A95E9F7A091B505B091B605D1
:1031D00018964C9118974250550B60E023E0822FCF
:1031E00090E084179507B4F4880F991FFD01E80F4C
:1031F000F91F8185823360F4E1E0F0E0EC0FFD1F00
:10320000E80FF11D90819F5F9083681708F4682F85
:103210002E5FE5CF1CAA1BAA9E012D5C3F4FAE017D
:103220004C5C5F4FCE0101960E94D60FE091B50530
:10323000F091B605F084F6948F2D90E09C01225019
:1032400031093093AF052093AE05039755E096956D
:1032500087955A95E1F7D82E8DA9811139C08BA990
:10326000882309F466C0FA94FA9433E0C32EE12C63
:1032700042E3B42E0EA90B9D800111242CA92B9D95
:10328000900111244BA94B9DA00111248F2DF0E238
:10329000FF1508F480E26C2D0E94AE08882309F423
:1032A00048C020E4C20EE39430EEF30EDE1410F7B3
:1032B0008CA99BA98927982789279093AD0580938E
:1032C000AC0542E050E05093A7054093A6050BC91A
:1032D000FA94FA9493E0B92EC12C22E3A22E0EA9FF
:1032E0000A9D800111242DA92A9D900111244CA929
:1032F0004A9DA00111248F2D90E29F1508F480E2D1
:10330000E12C6B2D0E94FE07882399F0A0E4BA0EF1
:10331000C394B0EEFB0EDC1410F78EA99DA989278B
:10332000982789279093AD058093AC0581E090E0C4
:10333000B2CAE090B505F090B605F70100850630F9
:1033400008F4D1C8DD24D39425EC3DE94CE151E8E3
:1033500010E08AE0C82E8D2D90E0BC016E5F7F4F9B
:1033600060177107DCF5660F771FF701E60FF71F8F
:1033700061857285880F991FF701E80FF91F818514
:103380009285C69ED001C79EB00D1124FC01EE0FA0
:10339000FF1FEE0FFF1FEE0FFF1FAE17BF07D0F08E
:1033A000C89EF001C99EF00D1124CB0163E0880F87
:1033B000991F6A95E1F7E817F90770F4E2E063E90D
:1033C00071E080E091E00E944E209B01AC012E272D
:1033D000D394C1CFE0E0F3CFE1E0F1CF2093B1058A
:1033E0003093B2054093B3055093B40580E290E06A
:1033F0009093AF058093AE051092A7051092A60595
:1034000072C881155FEF95075AE5A50755EAB5071C
:1034100009F4BCC181159F4FA245BD4A09F094C86B
:1034200080E690E00E94450361E088E00E94DB02B4
:1034300060E089E00E94DB0264E670E080E090E0FA
:103440000E943C0460E09AC18115FFEF9F07F5E4FC
:10345000AF07FAEBBF0709F4FDC0C0F481159F4F19
:10346000A644B94B09F070C82091DA033091DB0310
:1034700082E090E02115310509F4FCC04AE0429F4A
:10348000C001439F900D11240296F4C081154FEFA7
:10349000940744E4A4074BEBB40709F402C1811577
:1034A0009F4FA344BC4B09F04FC82091DA033091E1
:1034B000DB0386E090E02115310509F4DBC04AE02A
:1034C000429FC001439F900D11240696D3C08115E1
:1034D000EFEF9E07E5E1AE07EAEEBE0709F403C190
:1034E00008F059C081152FEF920729E1A20726EEB7
:1034F000B20709F41CC140F581159F4FAC41B34E92
:1035000009F022C88091100290911102813091053A
:1035100009F055C16091DE037091DF038091E003F3
:103520009091E1030E94AE216093D4037093D50380
:103530008093D6039093D70383E090E09093110299
:10354000809310020C94A41281155FEF950758E147
:10355000A50757EEB50709F4FEC081159F4FA64198
:10356000B94E11F00C94A4128091100290911102A6
:103570008B7F019711F00C94A41284EF91E00E94CC
:10358000250A1092E6031092E7031092E8031092C6
:10359000E9030C94A4128115FFEF9F07F9E0AF0730
:1035A000F6EFBF0709F4B1C0B0F481159F4FAD40ED
:1035B000B24F11F00C94A41260E080E00E946C09FC
:1035C00068E772E085E995E00E94BF0BF0E0E0E07B
:1035D00019950C94A41281154FEF940748E0A407A5
:1035E00047EFB40709F4E3C081159F4FA740B84FD8
:1035F00011F00C94A4122091DA033091DB0387E0E0
:1036000090E021153105B1F14AE0429FC001439F8E
:10361000900D112407962EC081E490E00E9445038E
:1036200064E670E080E090E00E943C0490E080E07E
:103630000E9445030C94A41281E490E00E9445038B
:1036400064E670E080E090E00E943C0490E080E05E
:103650000E9445032091DA033091DB0381E090E082
:103660002115310539F04AE0429FC001439F900D7A
:10367000112401969093DB038093DA030C94A41237
:103680002091DA033091DB0383E090E021153105CE
:1036900089F34AE0429FC001439F900D1124039695
:1036A000E9CF2091DA033091DB0384E090E021152B
:1036B000310501F34AE0429FC001439F900D112460
:1036C0000496D8CF2091DA033091DB0385E090E0B7
:1036D0002115310579F24AE0429FC001439F900DC8
:1036E00011240596C7CF2091DA033091DB0388E0DF
:1036F00090E02115310509F4BDCF4AE0429FC00199
:10370000439F900D11240896B5CF2091DA03309194
:10371000DB0389E090E02115310509F4ABCF4AE0E5
:10372000429FC001439F900D11240996A3CF809121
:10373000DA039091DB03009711F40C94A4124AE091
:10374000489F9001499F300D11243093DB03209353
:10375000DA030C94A41280E690E00E94450360E036
:1037600088E00E94DB0261E089E00E94DB0264E6FF
:1037700070E080E090E00E943C0461E088E00E94FC
:10378000DB0260E089E00E94DB0250CF80911002F2
:10379000909111020196909311028093100268ECAF
:1037A00070E080E090E00E943C040C94A4120E941F
:1037B0009D0980911002909111020197ECCF823007
:1037C000910509F04CC02FE93EE846EB51E46091C9
:1037D000DE037091DF038091E0039091E1030E948A
:1037E000901F0E94AE216093D4037093D503809301
:1037F000D6039093D7030E949D0960E080E00E9469
:103800006C0966E572E085E995E00E94BF0B409186
:10381000D4035091D5036091D6037091D70385E905
:1038200095E00E94A70A61E080E00E946C096EE5C5
:1038300072E085E995E00E94BF0B6CED75E080E0D9
:1038400090E00E943C0483E090E09093110280930A
:1038500010021092DB031092DA030C94A41283304E
:103860009105F9F48091DA039091DB039093DD03E5
:103870008093DC039093D9038093D80361E08BE0BD
:103880000E946C096EE572E085E995E00E94BF0B2D
:1038900068EC70E080E090E00E943C0484E090E0FE
:1038A000D4CF059711F00C94A4121092E603109255
:1038B000E7031092E8031092E903E091DC03F09132
:1038C000DD03309709F4C8C10E949D091092E603F8
:1038D0001092E7031092E8031092E90360E080E0A1
:1038E0000E946C0964E672E085E995E00E94BF0BD6
:1038F00061E080E00E946C094091DC035091DD039F
:1039000070E060E02AE085E995E00E945B0A6FE2E2
:1039100085E995E00E9470044091D8035091D90345
:1039200070E060E02AE085E995E00E945B0A809102
:10393000E6039091E703A091E803B091E90324E145
:10394000222E312C0E9417044B015C018091CC0384
:103950009091CD03A091CE03B091CF03A501940126
:10396000281B390B4A0B5B0BCA01B9010E94311F9E
:1039700020E034E244E759E40E943C216B017C01E1
:103980008092CC039092CD03A092CE03B092CF034D
:103990001092D0031092D1031092D2031092D3034D
:1039A000F8948091E6039091E703A091E803B09129
:1039B000E9038093D0039093D103A093D203B093F3
:1039C000D30378948091D0039091D103A091D20336
:1039D000B091D30321968CAF9DAFAEAFBFAF21970F
:1039E0002091D4033091D5034091D6035091D70351
:1039F00029AF3AAF4BAF5CAFBC01CD01621B730B7B
:103A0000840B950B0E94311F2B013C012091C803B0
:103A10003091C9034091CA035091CB030E94CF203B
:103A2000A70196010E943C214B015C01A301920178
:103A3000C701B6010E94901F2091C4033091C503B5
:103A40004091C6035091C7030E94D0206B017C01B6
:103A5000C092C403D092C503E092C603F092C7039C
:103A60002DEC3CEC4CE45DE3C501B4010E94901FD9
:103A7000A30192010E94D0204B015C0120E030E0C4
:103A8000A901C701B6010E94901F9B01AC01C501AD
:103A9000B4010E94D0204B015C017C016B01E894D1
:103AA000F7F820E030E04FE753E4C701B6010E9489
:103AB000E42118160CF4BAC020E030E042E852E4E9
:103AC000C701B6010E942A1F181654F020E030E00A
:103AD00040E450E4C701B6010E94E42187FFADC075
:103AE00020E030E0A901C501B4010E942A1F01E0D5
:103AF00010E087FF02C00FEF1FEF89AD9AADABADAD
:103B0000BCAD21962CAD3DAD4EAD5FAD2197821B76
:103B1000930BA40BB50B0496A11DB11D0997A1052C
:103B2000B10508F091C031E0231A310802E010E03D
:103B3000C701B6010E94AE215B01CB010E94450383
:103B400061E088E00130110509F482C060E088E09E
:103B50000F3F1F4F09F07CC00E94DB0261E089E04B
:103B60000E94DB024092C8035092C9036092CA03CC
:103B70007092CB0349AD5AAD6BAD7CAD81E094E062
:103B80000E94A70A69EB72E081E094E00E94BF0BFB
:103B90004091D0035091D1036091D2037091D3032F
:103BA00081E094E00E94A70A69EB72E081E094E072
:103BB0000E94BF0B22E0B701A60181E094E00E94C1
:103BC000D90A65E772E081E094E00E944C0A84E043
:103BD0002816310409F0B6CEC5010E94450360E005
:103BE00088E00E94DB0260E089E00E94DB0288EC52
:103BF00090E00E94250A85E00E94B202892BB9F369
:103C000061E086E00E94DB021092E6031092E70377
:103C10001092E8031092E9038091DC039091DD0398
:103C200001979093DD038093DC0347CEC12CD12C08
:103C30009FE7E92E93E4F92E53CFC12CD12C8CE8C9
:103C4000E82E82E4F82E4CCF4FEF241A340A70CFBE
:103C50000E94DB0260E083CF199581E090E09093B1
:103C60001102809310021092DE031092DF03109273
:103C7000E0031092E1031092D9031092D8030C9440
:103C8000A4128430910509F4B0C0059711F00C948A
:103C9000D41260E080E00E946C096CEE72E085E96D
:103CA00095E00E94BF0B61E080E00E946C096DEF1F
:103CB00072E02CC060E080E00E946C0966E572E072
:103CC00085E995E00E94BF0B4091E6035091E70320
:103CD0006091E8037091E90385E995E00E94A70AE5
:103CE00061E080E00E946C0969E872E085E995E096
:103CF0000E94BF0B64EB72E085E995E00E94BF0B68
:103D000061E08BE00E946C096FE872E085E995E064
:103D10000E94BF0B0C94D4126091DA037091DB0304
:103D200090E080E00E942F1F2DEC3CEC4CEC5DE31A
:103D30000E94901F6093DE037093DF038093E00383
:103D40009093E10360E080E00E946C0965E972E015
:103D500085E995E00E94BF0B61E080E00E946C095C
:103D60004091DE035091DF036091E0037091E10325
:103D700022E085E995E00E94D90A66EA72E085E9C9
:103D800095E00E94BF0B6AEA72E0C0CF60E080E07D
:103D90000E946C096BEB72E085E995E00E94BF0B15
:103DA00061E080E00E946C094091DA035091DB03EE
:103DB00070E060E02AE085E995E00E945B0A6BEC28
:103DC00072E085E995E00E94BF0B6AEA72E085E93E
:103DD00095E00E94BF0B8091DC039091DD039093EE
:103DE000D9038093D8030C94D41260E080E00E9441
:103DF0006C0960ED72E085E995E00E94BF0B40918F
:103E0000DE035091DF036091E0037091E10322E053
:103E100085E995E00E94D90A66EA72E085E995E0B5
:103E20000E94BF0B61E080E00E946C0969ED72E0C6
:103E300085E995E00E94BF0B4091DC035091DD03C2
:103E400070E060E02AE085E995E00E945B0A62EE9E
:103E500072E05CCF0E946C1F08F481E00895E89442
:103E600009C097FB3EF490958095709561957F4FC2
:103E70008F4F9F4F9923A9F0F92F96E9BB27939570
:103E8000F695879577956795B795F111F8CFFAF480
:103E9000BB0F11F460FF1BC06F5F7F4F8F4F9F4FB1
:103EA00016C0882311F096E911C0772321F09EE80F
:103EB000872F762F05C0662371F096E8862F70E075
:103EC00060E02AF09A95660F771F881FDAF7880F4F
:103ED0009695879597F90895990F0008550FAA0BA5
:103EE000E0E8FEEF16161706E807F907C0F012160D
:103EF0001306E407F50798F0621B730B840B950B10
:103F000039F40A2661F0232B242B252B21F4089564
:103F10000A2609F4A140A6958FEF811D811D089501
:103F20000E94A31F0C9414200E94062038F00E94C7
:103F30000D2020F0952311F00C94FD1F0C9403200C
:103F400011240C9448200E94252070F3959FC1F302
:103F5000950F50E0551F629FF001729FBB27F00D37
:103F6000B11D639FAA27F00DB11DAA1F649F66278C
:103F7000B00DA11D661F829F2227B00DA11D621FDB
:103F8000739FB00DA11D621F839FA00D611D221F95
:103F9000749F3327A00D611D231F849F600D211D79
:103FA000822F762F6A2F11249F5750409AF0F1F0FC
:103FB00088234AF0EE0FFF1FBB1F661F771F881F65
:103FC00091505040A9F79E3F510580F00C94FD1F81
:103FD0000C9448205F3FE4F3983ED4F386957795A0
:103FE0006795B795F795E7959F5FC1F7FE2B880F0B
:103FF000911D9695879597F9089597F99F6780E8A1
:1040000070E060E008959FEF80EC089500240A942A
:104010001616170618060906089500240A941216A3
:104020001306140605060895092E0394000C11F4D6
:10403000882352F0BB0F40F4BF2B11F460FF04C083
:104040006F5F7F4F8F4F9F4F089557FD9058440FDC
:10405000551F59F05F3F71F04795880F97FB991FE7
:1040600061F09F3F79F087950895121613061406A4
:10407000551FF2CF4695F1DF08C016161706180631
:10408000991FF1CF86957105610508940895E8940C
:10409000BB2766277727CB0197F90895DB018F931C
:1040A0009F930E948020BF91AF91A29F800D911D90
:1040B000A39F900DB29F900D11240895A1E21A2E96
:1040C000AA1BBB1BFD010DC0AA1FBB1FEE1FFF1FBC
:1040D000A217B307E407F50720F0A21BB30BE40B0C
:1040E000F50B661F771F881F991F1A9469F7609553
:1040F0007095809590959B01AC01BD01CF0108950D
:104100000E948B20A59F900DB49F900DA49F800DC1
:10411000911D11240895A29FB001B39FC001A39FD8
:10412000700D811D1124911DB29F700D811D1124F0
:10413000911D0895AA1BBB1B51E107C0AA1FBB1FFD
:10414000A617B70710F0A61BB70B881F991F5A9523
:10415000A9F780959095BC01CD010895EE0FFF1F42
:10416000881F8BBF0790F691E02D1994002E083020
:1041700090F0982F872F762F652F542F432F322FB3
:1041800022270850F4CF220F331F441F551F661FEC
:10419000771F881F991F0A95B2F7002D0895505870
:1041A000BB27AA270E94E7200C9414200E94062017
:1041B00038F00E940D2020F039F49F3F19F426F4C6
:1041C0000C9403200EF4E095E7FB0C94FD1FE92FFF
:1041D0000E94252058F3BA176207730784079507D2
:1041E00020F079F4A6F50C9447200EF4E0950B2E00
:1041F000BA2FA02D0B01B90190010C01CA01A00139
:104200001124FF27591B99F0593F50F4503E68F193
:104210001A16F040A22F232F342F4427585FF3CFD4
:10422000469537952795A795F0405395C9F77EF4A5
:104230001F16BA0B620B730B840BBAF09150A1F0EE
:10424000FF0FBB1F661F771F881FC2F70EC0BA0F74
:10425000621F731F841F48F4879577956795B795FC
:10426000F7959E3F08F0B0CF9395880F08F09927F7
:10427000EE0F9795879508950E9450210C94142075
:104280000E940D2058F00E94062040F029F45F3F64
:1042900029F00C94FD1F51110C9448200C9403201C
:1042A0000E94252068F39923B1F3552391F3951BC0
:1042B000550BBB27AA2762177307840738F09F5F47
:1042C0005F4F220F331F441FAA1FA9F335D00E2EB4
:1042D0003AF0E0E832D091505040E695001CCAF721
:1042E0002BD0FE2F29D0660F771F881FBB1F2617E4
:1042F00037074807AB07B0E809F0BB0B802DBF01BB
:10430000FF2793585F4F3AF09E3F510578F00C9489
:10431000FD1F0C9448205F3FE4F3983ED4F386954C
:1043200077956795B795F7959F5FC9F7880F911DAA
:104330009695879597F90895E1E0660F771F881F96
:10434000BB1F621773078407BA0720F0621B730B49
:10435000840BBA0BEE1F88F7E09508950E94B521F3
:104360006894B1110C94482008950E942D2088F083
:104370009F5798F0B92F9927B751B0F0E1F0660F29
:10438000771F881F991F1AF0BA95C9F714C0B1306A
:1043900091F00E944720B1E008950C944720672FC8
:1043A000782F8827B85F39F0B93FCCF38695779599
:1043B0006795B395D9F73EF4909580957095619582
:1043C0007F4F8F4F9F4F08950E946C1F08F48FEF0F
:1043D00008950E946C1F880B990B0895F894FFCFE5
:1043E0006F046F046F046F046F046F046F046F0435
:1043F00001000000400014005400000000000D0502
:104400007704A4045A05D504B304C70400000000CF
:1044100069063C067F0712063506220613060000D1
:104420000000460A77047F07AB056E616E00696E77
:1044300066006F76660053746570203D200053411E
:1044400056454400204D4553494E204245524A416D
:104450004C414E20000D0A002050524F4752414D12
:104460002020524553455420003C4261636B004E6E
:104470006578743E0050494C494820554B5552418F
:104480004E203D202000206D6D0020202020202087
:10449000202020202020202020200050494C494866
:1044A000204A554D4C4148203D2000207063730048
:1044B000554B5552414E203D004A554D4C414820E8
:1044C0003D002070637320202020200020204B4FCF
:1044D0004E4649524D415349203F20200054454B00
:0E44E000414E204F4B203D50524F534553004C
:00000001FF
